:020000040800F2
:1000000018240020E9360008B5340008B734000889
:10001000C1340008CB340008D534000800000000CB
:10002000000000000000000000000000DF340008B5
:10003000E1340008000000007F130008E31200080C
:10004000A1370008A5370008A9370008AD37000818
:10005000B1370008B5370008B9370008BD370008C8
:10006000C1370008C5370008C9370008CD37000878
:10007000D1370008D5370008D9370008DD37000828
:10008000E1370008E5370008E9370008ED370008D8
:10009000F1370008F5370008F9370008FD37000888
:1000A0000138000805380008093800080D38000834
:1000B0001138000815380008193800081D380008E4
:1000C0002138000825380008293800082D38000894
:1000D0003138000835380008151600089F28000838
:1000E00041380008453800084938000880B501F05B
:1000F000A1F800F01BFA00F036FA00F06CFA00F0FC
:10010000E8F900F096FB00F0F8FC00F04CFA00F083
:1001100071FF01F093F801BDDFF86807007801284E
:100120000BD1DFF864070078FF2806D0DFF8580706
:100130000078401CDFF850170870704710B5002495
:10014000DFF840070078012838D101F0FBF80400FF
:10015000DFF834070078002806D0DFF82C07007895
:10016000401EDFF824170870DFF81C07007800280D
:1001700021D1DFF81807007800281CD100F097FA89
:10018000DFF8B8070078DFF8081751F82000DFF82B
:1001900004170860DFF8A4070078DFF8FC16097878
:1001A000884208D0DFF898070068401CDFF89017F5
:1001B000086001F0E0F8200001F0C8F810BD80B53B
:1001C0000020DFF8C0160978012914D101F0BAF82F
:1001D000DFF8B416097800290BD1DFF8B0160978DA
:1001E000FF2906D0DFF8A4160978491CDFF89C2601
:1001F000117001F0ABF801BD80B50020DFF8841666
:100200000978012924D101F09DF8DFF880160978DA
:1002100000291BD0DFF874160978491EDFF86C2618
:100220001170DFF86816097800290CD1DFF858162C
:100230000978002904D101F089F800F008FA07E0F4
:1002400001F084F804E001F081F801E001F07EF8AB
:1002500001BD80B5DFF82C060078002819D100F028
:1002600026FADFF83406DFF8D41609780170DFF8D3
:10027000CC060078DFF8181651F82000DFF81416C5
:100280000860DFF8C006DFF80C160968016001F0AD
:1002900060F801BD38B5002401F013F801F052F800
:1002A0000400DFF8A4060068401CDFF89C16086014
:1002B000200001F04BF8DFF8CC05007801285ED172
:1002C000DFF888060078002803D0022805D002D382
:1002D00009E001200CE000200AE00120DFF86C16A4
:1002E00001220A7004E00120DFF8601600220A7083
:1002F000C0B2002843D0DFF85806056820E000208F
:1003000085F8290095F82800000715D4DFF8440681
:10031000007895F82E100843DFF83816087095F825
:100320002C00DFF85C17405C95F82D10084395F819
:100330002C10DFF84C2788546D69200001F006F876
:1003400095F82A003F281AD000F0FCFF0400686AE4
:100350000028F1D0686A401E6862686A0028EBD104
:1003600095F8280037210842C9D095F8280010F0E8
:10037000C80085F82800012085F82900C2E731BDB2
:10038000F8B5847ADFF8FC56665DF6B23418E47A84
:10039000DFF8F056645DF6B2E4B214EBC605EDB2D8
:1003A000DFF8EC4454F8254000276762216294F896
:1003B0002810914384F8281084F8293094F82810E4
:1003C000090713D4DFF88C15097894F82E2011430F
:1003D000DFF880251170F6B2DFF8A416715C94F88E
:1003E0002D201143F6B2DFF89826B1540100200009
:1003F00000F049F82800C0B2F2BDDFF848150968DE
:10040000C861DFF84015096891F82C100918C97AFD
:10041000DFF83025126892F82D201143DFF82425EB
:10042000126892F82C201218D172817ADFF8142504
:10043000126892F82E2011438172DFF808050068D7
:1004400090F82C00C0B2DFF83816415CDFF8F424D5
:10045000126892F82D209143C0B2DFF8242681540F
:10046000C0B2DFF81C16405C00280BD1DFF8E404B2
:100470000078DFF8D014096891F82E108843DFF86F
:10048000D4140870704710B490F82C20D2B25318CE
:10049000DB7A90F82D40A343D2B25418E372D2B263
:1004A0005218D27A002A05D18A7A90F82E0032EAC0
:1004B0000000887210BC704700218172002104E0A6
:1004C000C9B20A180023D372491CC9B20829F7D34C
:1004D000704710B54FF47A71DFF8B80600F0AEF847
:1004E000002010E0411C80B21422DFF8A83602FB85
:1004F000003289B21423DFF89C4603FB014100233C
:1005000013705160401C80B23128EBD380B21421AB
:10051000DFF8802601FB00220020107000205060D0
:10052000DFF86807DFF86C16016010BDDFF818040B
:1005300000210160DFF8500300210170DFF84C0357
:1005400000210170DFF8480700210170DFF8340353
:1005500000210170DFF8E80300210160DFF83407B3
:10056000002101607047DFF8EC03002101700020DA
:1005700005E0C0B2DFF8081500224254401CC0B2AA
:100580000828F6D3DFF8100300210170DFF8AC0370
:1005900000210170DFF8FC0200210160DFF8A403F4
:1005A00000210160704700B585B003200490002051
:1005B000039080200290DFF8E00501904FF6FF7075
:1005C00000903F23DFF8D02600210FF20D1000F03D
:1005D000B7FB05B000BD10B54FF45071DFF8BC0695
:1005E00000F02CF84FF48071DFF8A40200F026F838
:1005F00000200EE0411CC0B23422DFF8A03602FB1E
:100600000032C9B23423DFF8944603FB0141516143
:10061000401CC0B20F28EDD3C0B23421DFF87C26D5
:1006200001FB002200205061DFF82403002101605B
:10063000DFF86C06DFF86416016010BD03E00022ED
:100640000270401C491E89B20029F8D1704710B5CC
:10065000002400F077FE0400DFF82C020078002868
:1006600021D1DFF82802007800281CD100F01FF803
:10067000DFF8C8020078DFF8181251F82000DFF820
:1006800014120860DFF8B4020078DFF80C12097861
:10069000884208D0DFF8A8020068401CDFF8A012EA
:1006A000086000F064FE200000F050FE10BDDFF88E
:1006B000A4020078DFF8CC13405CC0B20100C9B2DC
:1006C000DFF8BC23895CDFF8BC23895C11EBC00038
:1006D000DFF868120870704780B5002100F032FE24
:1006E0000100DFF8B0050068401CDFF8A8251060A5
:1006F000080000F02BFE00F0A3FDEFE72DE9F24F1C
:10070000050017009846DDF82890DDF82CA00C9C19
:100710005FF0000B00F016FE8346DFF884050668E4
:10072000002E00F080807069DFF87415086058466C
:1007300000F00CFE0098306086F82A50002086F801
:100740002800002086F8290000207062C6F804A066
:10075000C6F80C90B7603482A6F81280EDB2E808B3
:1007600086F82C0015F0070086F82B00012096F87B
:100770002C10884086F82E00012096F82B10884017
:1007800086F82D000020F06100203062002005E096
:10079000C0B216EB800100220A63401CC0B20028E0
:1007A000F6D0300000F08CFD300000F048FD00F085
:1007B000C9FD8346EDB2DFF8D80040F82560DFF8C8
:1007C0009001006870610020B061DFF8840100686A
:1007D000002803D0DFF8780100688661DFF8700137
:1007E0000660DFF87001007896F82E100843DFF8F5
:1007F0006411087096F82C00DFF88412405C96F8BB
:100800002D10084396F82C10DFF874228854DFF876
:1008100080040078401CDFF878140870584600F017
:1008200095FD002003E0584600F090FD4220BDE811
:10083000F28F80B56421DFF8CC05FFF7FFFE0021C1
:100840000FE089B21420DFF8BC2500FB012089B23B
:100850001422DFF8B03502FB013202F214024260CA
:10086000491C89B20429ECD389B21420DFF89425FD
:1008700000FB012000214160DFF8C004DFF884158F
:10088000016001BD111C00200C1C00200D1C00206B
:10089000C0180020DC1B00200E1C0020F8B504004E
:1008A0000D000020DFF8DC150978002901D00020B8
:1008B00042E000F047FDDFF8D4130E68DFF8CC13F8
:1008C0000968002906D0DFF8C41309684968DFF811
:1008D000BC23116000F03AFD002E2CD000F032FD58
:1008E000DFF838160F68002F1BD0DFF83016DFF85E
:1008F0002C26126812680A6000F028FD7C60ADB2F8
:1009000014EB8500B860FC603C61BD820020F88279
:10091000022030700020308177603000FFF7CCFD7E
:1009200009E0DFF8681309687160DFF860130E6092
:1009300000F00CFD00263000F2BD00000F1C00206E
:10094000C81B0020D41B0020EC1B0020131C00201F
:10095000E01B0020101C0020F8B505000E0014005C
:1009600000272878022803D001202070002085E08D
:10097000DFF810050078002803D002202070002046
:100980007CE0DFF89C050078002803D00D20207063
:10099000002073E000F0D6FC07006868C18A0029D7
:1009A00013D001690A1D02610D68C18A491EC18206
:1009B00001698268914201D141680161380000F00B
:1009C000C5FC00202070280058E0DFF858050068BA
:1009D00090F8280050F00400DFF84815096881F805
:1009E0002800DFF840050068002180F82910DFF8B2
:1009F0003405006846622800FFF7FFFC380000F06D
:100A0000A5FCFFF724FE00F09DFC0700DFF81405AD
:100A1000006890F82900002802D0022807D00AE0D8
:100A2000DFF800050068056A002020700CE0002552
:100A30000E20207008E02900DFF8E8040068FFF7C6
:100A400022FD00250A202070DFF8D804006800216C
:100A500080F82810DFF8CC040068002180F8291005
:100A6000DFF8C00400680021C161DFF8B804006845
:100A700000210162380000F069FC2800F2BD00008E
:100A8000A01B00209033000870B506000D00002464
:100A90003078022801D001202EE000F053FC040041
:100AA000B07A00280DD00023042229003000FFF77F
:100AB00067FC0500200000F049FCFFF7C8FD00209E
:100AC0001AE07068C18A828A914204D3200000F043
:100AD0003DFC1E2010E0C1680A1DC2600D60C18A85
:100AE000491CC182C1688268914201D14168C160DC
:100AF000200000F02BFC002070BD10B5F021DFF8C5
:100B0000F004FFF79BFD00200EE0411C80B218228C
:100B1000DFF8DC3402FB003289B21823DFF8D0445E
:100B200003FB01411160401C80B20928EDD380B263
:100B30001821DFF8BC2401FB002200201060DFF840
:100B4000DC03DFF8AC14016010BD38B504000020F0
:100B5000DFF830130978002901D0002019E000F0F7
:100B6000F1FB4A490D6849490968002904D0474901
:100B700009684968454A116000F0E8FB002D07D07C
:100B8000032028702C81002068602800FFF794FC67
:100B9000280032BD18000020C0130020F8B5050061
:100BA0000E00140000272878032802D001202070AE
:100BB0006BE0DFF8D0020078002802D0022020701D
:100BC00063E0DFF85C030078002802D00D2020707D
:100BD0005BE000F0B7FB07002889002808D02889CF
:100BE000401E2881380000F0B1FB002020704CE04E
:100BF000DFF83003006890F8280050F00100DFF8BB
:100C00002413096881F82800DFF818030068002120
:100C100080F82910DFF80C03006846622800FFF70F
:100C2000ECFB380000F092FBFFF711FD00F08AFBAF
:100C30000700DFF8F002006890F82900002802D0D1
:100C4000022803D005E0002020700AE00E2020706A
:100C500007E02900DFF8CC020068FFF714FC0A2047
:100C60002070DFF8C0020068002180F82810DFF84B
:100C7000B4020068002180F82910DFF8A80200689B
:100C80000021C161380000F061FBF1BDCC1B0020E8
:100C9000121C0020D01B0020BC15002000040020E6
:100CA000D81B002038B5050000242878032801D07F
:100CB000012024E000F046FB0400A87A00280DD0B3
:100CC0000023012200212800FFF75AFB0500200025
:100CD00000F03CFBFFF7BBFC002010E028894FF63A
:100CE000FF71884207D02889401C2881200000F02D
:100CF0002DFB002003E0200000F028FB332032BD54
:100D000070B505000E00140000202978032902D0D8
:100D10000120207011E000F015FB002121702989CD
:100D2000002901D02E8106E0A97A002901D12E8167
:100D300001E04921217000F009FB70BDE41B002097
:100D40002DE9F34F83B090461E000E9CDDF83C90D9
:100D5000DDF840A0DDF844B0129D002700F0F2FA63
:100D6000070048480078002804D0380000F0EEFA68
:100D70003C2043E0F6B2DFF8AC0350F82600002830
:100D800038D1F6B2DFF89C03012140F82610380074
:100D900000F0DCFA2B009BB242460499039800F065
:100DA00050FAADB20295CDF804B0CDF800A0230002
:100DB0009BB24A4601003000C0B2FFF79FFC04001E
:100DC000E4B2002C07D1DFF83804007801280ED1F6
:100DD000FFF73DFC0BE000F0B5FA0700F6B2DFF8D4
:100DE0004403002140F82610380000F0AFFA20003C
:100DF000C0B203E0380000F0A9FA282005B0BDE831
:100E0000F08F0000B01A002010B5040000201D492A
:100E10000978002934D142480078002830D1002CCC
:100E20002ED000F08FFADFF80013096891F82C102B
:100E3000C9B2DFF844238A5CDFF8EC321B6893F810
:100E40002D309A43C9B2DFF83033CA54C9B2DFF843
:100E50002823895C00290BD1DFF820130978DFF8FB
:100E6000C822126892F82E209143DFF810231170E7
:100E7000DFF8B41209684C6200F068FAFFF7E7FB8C
:100E800010BD00000C1C002038B5002500F05AFAF7
:100E90000500DFF870030468280000F057FA20000E
:100EA00032BD2DE9F84F04000D0016001F00DDF8DB
:100EB0002880DDF82C90DDF830A0DFF84C030078B6
:100EC000002804D08B208AF80000002023E0FFF7E0
:100ED00076F900F071F88346BBF1000F06D1FFF7F9
:100EE0008BF986208AF80000002014E001208BF89E
:100EF0002500CBF81840CBF81C508BF82460CBF8B9
:100F00000470CBF80880CBF82090FFF775F900202B
:100F10008AF800005846BDE8F28F0000E81B002068
:100F20000D1C0020D41B002038B505000C002878CB
:100F3000642803D089202070002035E0DFF8C80243
:100F40000078002803D08B20207000202CE0FFF7D1
:100F500036F995F8250000281BD002280FD00ED3B3
:100F600003281CD1280000F0E1F80021280000F03F
:100F7000A1F8FFF741F900202070012014E00021C2
:100F8000280000F097F8FFF737F9002020700120C3
:100F90000AE0FFF731F987202070002004E0FFF716
:100FA0002BF98D202070002032BD80B59848006854
:100FB000FFF778FEC0B202BD96480068002801D154
:100FC000002012E093480068C168924A1160002135
:100FD000C1600021016190490988491C8E4A118035
:100FE0008E490988491E8D4A118070470000000013
:100FF000C019002010B54FF420718948FFF71EFB7F
:1010000040218848FFF71AFB002013E0411C80B202
:101010002822834B02FB003289B22823804C03FB39
:10102000014164231370002382F82530D16073A13D
:101030001162401C80B20F28E8D380B22821784A80
:1010400001FB002264201070002082F8250000209F
:10105000D0606AA010626D48002101606E480021D6
:1010600001806E48102101806A486D4901600120AD
:10107000FFF76BFD6C4908600020FFF766FD6449CF
:10108000086000F001F810BD00B585B003200490A1
:101090000020039080200290644801904FF6FD707C
:1010A00000900323624A00210FF2D500FFF748FEAB
:1010B00005B000BD032280F82520C9B2012905D161
:1010C000C169524A1268511841610DE081690029D5
:1010D00005D1C1694D4A12685118416104E0816926
:1010E0004A4A12685118416142690823B2FBF3F180
:1010F00001FB132189B24B4A12EBC102116800298E
:1011000005D110600021C1600121918006E01168C5
:101110001060C16008619188491C918000210161C3
:1011200070470000C0180020D41B0020426908232B
:10113000B2FBF3F101FB132189B23A4A12EBC1036E
:101140001968814206D1C1681960002908D00022BF
:101150000A6105E00169C268CA60002A00D0116115
:10116000012180F825100021C160002101619888CB
:10117000401E988070470000A01B0020101C00201B
:1011800038B501E0FFF738F800AA002120480068D0
:10119000FFF704FDFFF713F81C480068401C1B49CB
:1011A00008601A4801680822B1FBF2F000FB121037
:1011B00080B21C4911EBC00004680AE0022084F8E8
:1011C000250062681000002802D0A1682000904726
:1011D0002C00002CD6D0E5680C4800686169884274
:1011E000F6D12000FFF7A2FF94F824000228E5D1F1
:1011F00001212000FFF75EFFE3E700003F00000051
:10120000111C0020EC1B00200C1C0020F01B0020F7
:10121000F81B0020FC1B0020061C0020041C0020E2
:1012200040070020141B0020F41B0020C0150020E4
:10123000BC1700203E48002101807047704770476E
:101240007047030010005FF080720260001F0360AF
:10125000001F7FF001020260001F5FF01232026087
:10126000001F5FF003320260001F5FF00232026075
:10127000001F5FF001320260001F0160001F5FF07D
:1012800011310160001F5FF010310160001F5FF03D
:1012900009310160001F5FF008310160001F5FF03D
:1012A00007310160001F5FF006310160001F5FF031
:1012B00005310160001F5FF0043101607047704725
:1012C000704780B51A480088401C194908801848A2
:1012D0000088642804D3164800210180FFF765FECA
:1012E00001BD80B500F02EF812490978491C114A59
:1012F000117000F02BF8FEF7CDFFFEF71FFF01BDC8
:101300004FF47A71B0FBF1F0401E0B4908600B48B6
:10131000FF2101700A48006850F005000849086084
:101320000748006850F00200054908607047000057
:10133000021C00200C1C002014E000E023ED00E063
:1013400010E000E0EFF3108072B6704780F3108871
:1013500070471B48FF210170002080F3098819485D
:101360000121017018481949016062B6FEE716486C
:10137000164901607047144814490160704772B6FD
:10138000EFF3098028B1203880E8F00F1049096890
:10139000086000B50F4880475DF804EB0E480F4920
:1013A0000A7802700A480E490A680260106890E8DC
:1013B000F00F203080F309884EF0040E62B67047BB
:1013C00022ED00E0111C002004ED00E00000001000
:1013D000D41B0020BF1200080E1C00200F1C002090
:1013E000DC1B002000B58DB001215FF4003000F05F
:1013F000AEFF0320ADF8140010208DF81700032075
:101400008DF8160005A9DFF8AC0500F0BFFF01203C
:10141000ADF8140010208DF8170003208DF8160089
:1014200005A9DFF8940500F0B1FF0820ADF814001D
:1014300010208DF8170003208DF8160005A9DFF89D
:101440007C0500F0A3FF0420ADF8140003208DF804
:10145000160018208DF8170005A9DFF8580500F0D0
:1014600095FF0820ADF8140003208DF81600042025
:101470008DF8170005A9DFF83C0500F087FF4FF451
:10148000165008900020ADF824000020ADF826008A
:101490000020ADF828000020ADF82C000C20ADF89D
:1014A0002A0008A9DFF8180500F0DCFF4FF4E0601F
:1014B00001F0D0F826208DF81C0001208DF81D00C9
:1014C00001208DF81E0001208DF81F0007A801F0F3
:1014D000C6F80121DFF8E00400F0C1FF0221DFF8C7
:1014E000D40400F0BCFF0121DFF8C80400F0B7FF0E
:1014F0004FF4FA60FFF788FC0121DFF8B80400F030
:10150000ABFF012240F22551DFF8B40401F01AF8D4
:101510000121DFF8AC0401F007F84FF47A60FFF71F
:1015200073FC0A21DFF83C0BFFF7B8F9DFF86C1BFE
:101530000860DFF8680B0068002802D15FF0FF3018
:1015400066E00020FFF701FBDFF8541B0860DFF8BE
:10155000500B0068002802D15FF0FF3058E00320F4
:1015600004900020039080200290DFF8380B019057
:10157000072000900723DFF8302B00210FF24540B1
:10158000FFF7DEFBC0B2002802D05FF0FF303FE083
:1015900006A80290DFF8140B0190002000900FF2D3
:1015A000A923012205210020FFF77BFCDFF8001BA7
:1015B000086006A80290DFF8FC0A01900020009065
:1015C0000FF2CD130222C8210020FFF76AFCDFF8DA
:1015D000681B086006A9DFF8600B0068FFF7A4FC31
:1015E000DFF8B40B007850F0C000DFF8AC1B0870D7
:1015F0004FF47A70FFF708FC4FF47A70FFF704FCA1
:101600004FF47A70FFF700FC4FF47A70FFF7FCFBA1
:101610000DB000BD10B582B00024FEF77DFD40F294
:101620002551DFF89C0300F0D2FF002800F0A180D4
:1016300040F22551DFF8880300F0FBFFDFF880035C
:1016400000F0ADFF0400DFF8540B0078DFF8501B0A
:101650004454DFF8480B0078401CDFF8401B08704A
:10166000DFF8380B007819287AD3DFF8300B0078D0
:10167000DFF82C1B401810F8010CDFF8281B097844
:10168000C9B288426CD1DFF8140B0078DFF8101B68
:10169000401810F8020CDFF80C1B098889B2090AFF
:1016A000C9B288425CD1DFF8F40A0078DFF8F01A9A
:1016B000401810F8030CDFF8EC1A8978C9B2884298
:1016C0004ED1DFF8D80A0078DFF8D41A401810F8A5
:1016D000040CDFF8D01A498889B2090AC9B28842D5
:1016E0003ED1DFF8C40AFF210170012001F01DF88E
:1016F000DFF8A40A0078C0F3C000C0072CD5DFF8DB
:10170000A00ADFF8A01A09888171DFF8940ADFF8CF
:10171000941A098889B2090A4171DFF8840ADFF84E
:10172000841A49880171DFF87C0A408880B2000A77
:10173000DFF86C1AC870DFF8680A06218170DFF8DC
:10174000600ABB214170DFF8580AAA210170DFF856
:101750004C0A0721017003E0DFF8400A0021017004
:10176000DFF8380A0078FA2803D3DFF8300A0021BE
:101770000170FEF7E3FCDFF8240A0078012805D1A8
:1017800000A9DFF82C090068FFF7CEFB13BD0000AD
:1017900080B5FEF7C1FCDFF8000A0078C0B280090E
:1017A00001280FD0DFF8F0090078C0B280090028C6
:1017B00008D0DFF8E409007850F0C000DFF8D8194D
:1017C00008703DE0DFF8E4090078401CDFF8DC1920
:1017D0000870DFF8D809007803281BD3DFF8B809B0
:1017E0000078C0B28009012814D1DFF8BC09007864
:1017F000FF280FD0DFF8B40900210170DFF8A80935
:1018000000210170DFF89009007850F02000DFF827
:1018100088190870DFF894090078DFF888190979C9
:101820000322514388420BDBDFF88009002101705D
:10183000DFF86409007810F03F00DFF85C190870E9
:10184000FEF77CFC01BD000080B5DFF85009007890
:10185000032823D3DFF840090078C0F3C000C00795
:1018600004D4DFF844090078FF280ED1DFF82C09F2
:101870000178DFF82C0901F04BF9DFF82C0900782A
:10188000FF2802D1012000F03DFFDFF81009002100
:101890000170DFF80C080068FFF704FA01BD80B59D
:1018A000DFF80009008800281FD1DFF8EC08007875
:1018B000C0F3C000C00703D5DFF8F40801F039F920
:1018C000002000F01FFF012000F01CFF4FF47A7091
:1018D000FFF79AFA002000F028FF012000F025FF12
:1018E0004FF47A70FFF790FA62E04FF4FA60FFF776
:1018F0008BFA4FF4FA60FFF787FA0021202000F0FE
:10190000A3FB00211C2000F09FFB00211B2000F006
:101910009BFB00211D2000F097FB0121032000F01C
:1019200093FB4FF4FA60FFF76FFA0021042000F0F8
:101930008BFB0021062000F087FB0021072000F030
:1019400083FB4FF4FA60FFF75FFA4FF4FA60FFF79A
:101950005BFA4FF4FA60FFF757FA4FF4FA60FFF7BB
:1019600053FA00210D2000F06FFB4FF4FA60FFF7EF
:101970004BFA4FF4FA60FFF747FA00210A2000F013
:1019800063FB0021172000F05FFB4FF4FA60FFF7C4
:101990003BFA4FF4FA60FFF737FADFF8FC070078FC
:1019A000C0B28009012803D100210B2000F04CFBBC
:1019B00001BD000000080140000C01400010014082
:1019C0000044004038B500200AE0DFF8D0070021CD
:1019D00001704FF400720021DFF8C40701F0B4F881
:1019E00000AA0021DFF8B4060068FEF7B5FF002862
:1019F000EBD010F0FF05040A00AA0021DFF8A006D2
:101A00000068FFF77DF9ADB2012D00F02F81022DA6
:101A100000F02D81032D00F02B81042D00F0718149
:101A2000052D00F07B81062D00F08581072D00F04B
:101A3000A681082D00F0BB810A2D00F0C4810B2D7A
:101A400000F02B820C2D00F090820D2D00F08D8285
:101A50000E2D00F095820F2D00F09D82102D00F0CC
:101A60009A82112D00F0A282122D00F09F82132D78
:101A700000F0A782142D00F0A482152D00F0A182A1
:101A8000162D00F09E82172D00F0A682182D00F072
:101A9000AE82192D00F0CC821B2D4DD01C2D0FD005
:101AA0001D2D00F09F801E2D00F0A1821F2D00F043
:101AB000A982202D00F0B182212D00F0BA8284E7A6
:101AC000DFF8E006C07F002804D1DFF8E80600F068
:101AD000F3FA07E0DFF8CC060121C177DFF8D4067E
:101AE00000F0EAFA00AA4FF4FA61DFF8B4050068E2
:101AF000FFF754F89DF800000A2814D100AA4FF40B
:101B0000FA61DFF89C050068FFF748F89DF80000CF
:101B10000A2808D1DFF88006007810F0FB00DFF813
:101B20007816087051E7DFF87006007850F004006E
:101B3000DFF86416087048E7DFF87C0600F0BCFAAE
:101B400000AA4FF4FA61DFF858050068FFF726F89D
:101B50009DF800000A283FF438AFDFF83C06007813
:101B600010F0FE00DFF83016087000208DF800003D
:101B700004E09DF80000401C8DF800009DF8000076
:101B800051282ED29DF80000DFF81416405C3A2848
:101B9000EFD19DF80000DFF80816401840782028A3
:101BA000E7D19DF80000DFF8F8154018807852283A
:101BB000DFD19DF80000DFF8E8154018C07845280F
:101BC000D7D19DF80000DFF8D815401800794128DA
:101BD000CFD1DFF8C405007850F00100DFF8B81568
:101BE0000870F2E6DFF8D40500F066FA00AA4FF4B8
:101BF000FA61DFF8AC040068FEF7D0FF9DF8000042
:101C00000A283FF4E2AE00208DF8000004E09DF8C1
:101C10000000401C8DF800009DF80000332824D2FD
:101C20009DF80000DFF87815405C3A28EFD19DF868
:101C30000000DFF86C15401840782028E7D19DF8A7
:101C40000000DFF85C154018807810F00F000A21C2
:101C50009DF80020DFF84835D218D27812F00F0234
:101C600001FB0020DFF830154870AEE6ADE6ACE6CB
:101C7000E4B2002C04D1DFF8480500F01DFA0EE0B4
:101C8000E4B2012C04D1DFF83C0500F015FA06E0BF
:101C9000E4B2022C03D1DFF8300500F00DFA00AAFF
:101CA0004FF4FA61DFF8F8030068FEF777FF9DF85C
:101CB00000000A283FF489AE00208DF8000004E0FF
:101CC0009DF80000401C8DF800009DF80000512890
:101CD00016D29DF80000DFF8C814405C4F28EFD101
:101CE0009DF80000DFF8B814401840784B28E7D181
:101CF000DFF8A404007850F00200DFF89C140870AC
:101D000063E6DFF8C80400F0D7F900AA4FF4FA61DF
:101D1000DFF88C030068FEF741FF56E6DFF8B004F9
:101D200000F0CAF900AA4FF4FA61DFF87403006802
:101D3000FEF734FF49E6DFF860040078C0F30010D6
:101D4000C00704D4DFF88C0400F0B6F90AE0DFF82D
:101D500048040078C0F30010C00703D5DFF878040A
:101D600000F0AAF900AA4FF4FA61CD480068FEF726
:101D700015FF9DF800000A283FF427AE25E6DFF89E
:101D80005C0400F099F900AA4FF4FA61C4480068B5
:101D9000FEF704FF9DF800000A283FF416AE062265
:101DA000DFF83C14DFF8F80300F0D8FE0DE6DFF8AA
:101DB000340400F081F900AA4FF4FA61B8480068D1
:101DC000FEF7ECFE01E6DFF8DC034079012804D1E0
:101DD000DFF8140400F070F908E0DFF8C803407978
:101DE000032803D1DFF8040400F066F9DFF80004EB
:101DF00000F062F900AA4FF4FA61A9480068FEF702
:101E0000CDFE9DF800000A283FF4DFAD00208DF8DC
:101E1000000004E09DF80000401C8DF800009DF8D3
:101E2000000065282CD29DF80000DFF87413405C98
:101E300043280FD19DF80000DFF864134018407864
:101E40004F2807D19DF80000DFF854134018807820
:101E50004E280ED09DF80000DFF84413405C4F2858
:101E6000D8D19DF80000DFF83813401840784B288F
:101E7000D0D10120C849097860F38711C6480170A4
:101E8000C5480078C0B28009012805D0C248007852
:101E900050F02000C049087097E5DFF8580300F0C3
:101EA0000BF900AA4FF4FA617D480068FEF776FE50
:101EB0009DF800000A2807D10220B749097860F38D
:101EC0008711B548017080E500208DF8000004E01E
:101ED0009DF80000401C8DF800009DF800001828B7
:101EE00037D29DF80000AE49405C0D28F0D19DF836
:101EF0000000AB49401840780A28E9D19DF800005D
:101F0000A749401880783E28E2D1A648008880B2D0
:101F1000000AC0B200F0A8F8A2480088C0B200F0E1
:101F2000A3F8A048408880B2000AC0B200F09CF834
:101F30009C484088C0B200F097F8E4B2012C05D16B
:101F4000AD48417889B2AC4800F0C1F81A2000F0E1
:101F50008BF89DF80000142806D302208E490978DA
:101F600060F387118C4801702FE5A44800F0A4F8B5
:101F700000AA4FF4FA614A480068FEF70FFE24E514
:101F80009F4800F099F800AA4FF4FA6144480068AD
:101F9000FEF704FE19E59B4800F08EF800AA4FF406
:101FA000FA613F480068FEF7F9FD0EE5964800F03B
:101FB00083F800AA4FF4FA6139480068FEF7EEFD95
:101FC00003E5924800F078F800AA4FF4FA6134482B
:101FD0000068FEF7E3FDF8E48D4800F06DF800AA14
:101FE0004FF4FA612E480068FEF7D8FDEDE4894809
:101FF00000F062F800AA4FF4FA6129480068FEF781
:10200000CDFDE2E4844800F057F800AA4FF4FA61ED
:1020100023480068FEF7C2FDD7E4804800F04CF882
:1020200000AA4FF4FA611E480068FEF7B7FDCCE441
:10203000CBE47B4800F040F800AA4FF4FA6118485E
:102040000068FEF7ABFDC0E480B50022C9B2C0B2A3
:1020500050EA01200200110010480068FEF714FD4C
:1020600001BD0000541B002010B5040040216D4844
:1020700000F0A7FA80216B4800F095FA00280BD0F9
:10208000E4B2210089B2674800F085FA4021654832
:1020900000F089FA0028F9D010BD0000B01B002024
:1020A000AC1B0020C00B0020BC0D002064370008D2
:1020B000B41B0020F836000810B5040003E02078B7
:1020C000FFF7D2FF641C20780028F8D110BD38B586
:1020D00004000D00ADB2012D04D208E02078FFF716
:1020E000C3FF641C2800451E80B20028F6D131BD14
:1020F00080B52948007810F0DF002749087026488D
:10210000002101702848002101702448002101703D
:10211000012000F00AFB0121434800F09DF94FF433
:102120007A70FEF771FE4FF47A70FEF76DFE0121B2
:102130003D4800F094F901BDB81B002080B5194856
:1021400040F6AE51018017484FF47A714180124831
:10215000007810F0F700104908700F48007810F070
:10216000EF000D4908700F480121417102200A4912
:10217000097860F38711084801700A48012101714C
:1021800017222A491A4800F01AFD0648202180F833
:10219000231000F0E4FD01BDA81B0020081C002056
:1021A000C00900207C1B0020091C00200A1C002004
:1021B000EC3500086C3700080437000810370008B9
:1021C0001C37000828360008383600084836000852
:1021D00058360008683600087836000828370008A6
:1021E00074370008883600080036000814360008E6
:1021F000821B002098360008C00F002034370008EA
:10220000A8360008343500084C350008643500084D
:10221000B8360008C83600087C350008D8360008F3
:102220004037000800440040000C0140943500088D
:1022300000214F4A1268110031F0F00101434C486F
:102240000160704700214A4A1268110031F4E061D0
:1022500001434748016070470021454A1268110058
:1022600031F4605151EAC00141480160704730B417
:1022700000220021002300243D4D2D6815F00C059F
:102280002A00002A04D0042A05D0082A06D021E01A
:102290003849016020E0374901601DE03449096890
:1022A00011F47011324A126812F48033890C891CBF
:1022B000002B03D1304A514301600AE02C4A1268D6
:1022C000920303D52C4A5143016002E0294A51434D
:1022D000016001E0274901602549096811F0F00219
:1022E00012092649545C0168E140416020490968AF
:1022F00011F4E062120A2149545C4168E1408160B6
:102300001B49096811F46052D20A1C49545C4168A7
:10231000E140C1601649096811F44042920B184926
:10232000545CC168B1FBF4F1016130BC7047C9B2C3
:10233000002905D01349096808431249086005E0DF
:102340001049096831EA00000E4908607047C9B2B7
:10235000002905D00C49096808430B49086005E0CD
:102360000949096831EA0000074908607047000020
:102370000410024000127A0000093D000000002015
:1023800010000020181002401C100240F0B400227F
:102390000026002400250023002791F803C01CF02C
:1023A0000F0C624691F803C05FEACC6C01D58B78C4
:1023B0001A430B781B0621D00368002406E0CD7871
:1023C000482D02D10125A5400561641C082C14D2BA
:1023D0000125A5400E882E40AE42F6D1A5000F265D
:1023E00016FA05F7BB4312FA05F52B43CD78282DD5
:1023F000E5D10125A5404561E7E703600B884FF46F
:102400008074A34226D34368002420E0012514F100
:102410000806B5400E882E40AE4217D1A5000F2603
:1024200016FA05F7BB4312FA05F52B43CD78282D94
:1024300004D1012514F10806B5404561CD78482D39
:1024400004D1012514F10806B5400561641C082C6F
:10245000DCD34360F0BC704789B20161704789B238
:1024600041617047F0B585B004000D0000200021E7
:10247000002200230026AF89002F2600208A4CF678
:10248000FF710840E98808432082A0894EF6F311C5
:102490000840A9882A8911436A8911430843A08109
:1024A000A08A4FF6FF410840A9890843A08200A8EE
:1024B000FFF7DDFE1B48864201D1039900E0029937
:1024C000A089000407D5192000FB01F02968490004
:1024D000B0FBF1F206E0192000FB01F02968890049
:1024E000B0FBF1F26420B2FBF0F0000101096423BB
:1024F00003FB1123A189090408D5D90032316422D4
:10250000B1FBF2F111F00701084307E01901323184
:102510006422B1FBF2F111F00F010843208105B0F4
:10252000F0BD000000380140C9B2002904D0818903
:1025300051F40051818104E081894DF6FF72114010
:1025400081817047F0B4002300240025002640F666
:102550006A1789B2B94206000800C0B24309DBB26B
:1025600089B211F01F04012010FA04F5012B01D1EA
:102570000C3604E0022B01D1103600E01436D2B242
:10258000002A03D030682843306002E03068A84356
:102590003060F0BC7047C905C90D818070478088E4
:1025A000C005C00D704700224FF4007389B29942F4
:1025B0000088084201D0012200E000221000C0B2D1
:1025C000704789B28A0589B2C9430180704770B4E7
:1025D000002300240025002240F66A1689B2B14289
:1025E0000A00D2B25509EDB289B211F01F040122DE
:1025F00012FA04F4012D02D18289144006E0022D62
:1026000002D1028A144001E0828A144089B20B0A86
:102610009BB2012111FA03F300880340002C03D080
:10262000002B01D0012200E000221000C0B270BCDB
:10263000704710B40022002340F66A1489B2A14208
:1026400089B20A0A012111FA02F39BB2D94301802F
:1026500010BC70471B4908431B490860704710B401
:10266000002100220F23C478002C1ED016490968CF
:1026700011F4E061D1F5E061090AD1F10402CB4027
:102680004178914082781A401143090102780F4B3A
:10269000D154017849110E4A0123007810F01F002F
:1026A00013FA00F042F821000AE001784911094AC2
:1026B0000123007810F01F0013FA00F042F8210007
:1026C00010BC70470000FA050CED00E000E400E0EB
:1026D00000E100E080E100E080B54FF44050ADF84B
:1026E000000010208DF8030003208DF8020000A9DF
:1026F0001748FFF74BFE002000F017F8012000F00C
:1027000014F801BD80B5C0B2002805D14FF4805146
:102710000F48FFF7A4FE07E0C0B2012804D14FF430
:1027200000510B48FFF79BFE01BD80B5C0B20028E9
:1027300005D14FF480510648FFF78EFE07E0C0B286
:10274000012804D14FF400510148FFF785FE01BD77
:10275000000C014000B58DB001215FF48020FFF72F
:10276000F6FD4FF48060ADF8140003208DF81600DC
:1027700018208DF8170005A9DFF86403FFF706FE9F
:102780004FF40060ADF8140003208DF8160004200B
:102790008DF8170005A9DFF84803FFF7F7FD4FF4A0
:1027A000165008900020ADF824000020ADF8260057
:1027B0000020ADF828000020ADF82C000C20ADF86A
:1027C0002A0008A9C748FFF74DFE4FF4E060FFF765
:1027D00041FF27208DF81C0002208DF81D000220EB
:1027E0008DF81E0001208DF81F0007A8FFF737FFA6
:1027F00006A80290BC480190002000900FF26D03E3
:10280000012206210020FEF74CFBB8490860012296
:1028100040F22551B348FFF795FE0121B148FFF77B
:1028200083FE0020FEF791F9B1490860B0480068C6
:10283000002802D15FF0FF3016E003200490002052
:10284000039040200290AB480190062000900623A0
:10285000A94A00210FF29D00FEF772FAC0B20028CB
:1028600002D05FF0FF30FFE70DB000BD80B5A34898
:102870000088A34900224254A0480088032803D2BC
:102880009E480021018009E0002240F22551954830
:10289000FFF758FE96480068FEF704FA01BD10B530
:1028A00082B00024FDF738FC40F225518D48FFF737
:1028B0008EFE002811D040F225518A48FFF7B9FE5C
:1028C0008848FFF76CFE04008C4800888C4944540B
:1028D0008A480088401C89490880FDF72FFC8748FA
:1028E0000088012804D100A980480068FEF71CFB7D
:1028F00013BD000010B58EB000201EE07F48028896
:102900007F49804800F05BF901210B20FFF79CFB19
:102910007A480021018000243222002101A800F021
:1029200013F94FF400720021754800F00DF90122EF
:1029300040F225516B48FFF705FE00AA00216C48C4
:102940000068FEF72BF96E480078AA28D6D16C48AB
:102950004078BB28D2D1694800886949401810F8EE
:10296000010CCC28D4D1654800886549401810F87E
:10297000020CFF28CCD10024E4B201A8AA212154E2
:10298000641CE4B201A8BB212154641CE4B201A878
:102990005B4989782154641C5B48007850F008003A
:1029A000594908705648807801280CD002281FD059
:1029B00003283AD0042849D0052866D007286BD0D0
:1029C00008286ED0A4E7E4B201A811212154641CA8
:1029D000E4B201A8FF212154641CE4B201A8CC2177
:1029E0002154641C2100C9B201A800F091F88FE7BE
:1029F000002007E0E4B201A9C0B2444A825C6254FC
:102A0000641C401CC0B22428F4D3E4B201A8FF2106
:102A10002154641CE4B201A8CC212154641C21007F
:102A2000C9B201A800F074F872E7002007E0C0B254
:102A300033494118C978C0B2344A8154401CC0B2ED
:102A40001D28F4D331480121417761E7E4B201A8A0
:102A50002D4909782154641CE4B201A82A49497817
:102A60002154641CE4B201A8FF212154641CE4B287
:102A700001A8CC212154641C244801218177210024
:102A8000C9B201A800F044F842E71F48007850F0AE
:102A900020001D4908703BE71C481949C978C177D7
:102AA00036E701212120FFF7CFFA31E710B5040006
:102AB00040210C48FFF785FD80210A48FFF773FD90
:102AC00000280BD0E4B2210089B20648FFF763FD6D
:102AD00040210448FFF767FD0028F9D010BD000031
:102AE000000C0140004800404C370008C01B00208B
:102AF000C41B0020C0170020BC180020001C0020B0
:102B0000C00D0020C00F0020A81B00207C1B00204F
:102B100038B504000D00EDB2012D04D208E0207894
:102B2000FFF7C4FF641C2800451EC0B20028F6D180
:102B300031BD10B5040003E02078FFF7B7FF641C37
:102B400020780028F8D110BD10B5040010000A004C
:102B50000100200000F038F9200010BD0300002023
:102B600013F0030F09D0521E22BF13F8010B11F806
:102B700001CBB0EB0C00F3D07047121F22BF53F80B
:102B8000040B51F804CB6045F7D0121D0AD200BAED
:102B90009CFA8CFCB0EB0C0038BF6FF0000088BFD3
:102BA00001207047521E22BF13F8010B11F801CB10
:102BB000B0EB0C00F6D0521C08BF1046704710B5A1
:102BC0000400200000F04AF9200010BDBFF34F8F31
:102BD0007448006810F4E060734908437149086064
:102BE000BFF34F8FFEE710B586B0002401214FF4EC
:102BF0008050FFF79CFBE020ADF8000018208DF816
:102C0000030003208DF8020000A96848FFF7BEFB0F
:102C10001020ADF8000010208DF8030003208DF87F
:102C2000020000A96148FFF7B1FB10215F48FFF7E0
:102C300013FC0020ADF804004FF48270ADF80600DC
:102C40000020ADF808000220ADF80A000120ADF820
:102C50000C004FF40070ADF80E001020ADF810001D
:102C60000020ADF812000720ADF8140001A950486B
:102C700000F040F901214E4800F05CF900F036F810
:102C800004004C48844202D14B48012101700120CC
:102C9000FDF75BFF4949086010214448FFF7DFFB5F
:102CA00006B010BD38B504000221414800F054F9C7
:102CB0000028F9D0E4B2210089B23D4800F048F97B
:102CC000FEF7E2F80400FEF7DFF8050001213848BE
:102CD00000F042F9002804D1281B4FF47A71884291
:102CE000F1D3334800F036F9C0B232BD70B50024DC
:102CF0000025002610212D48FFF7B1FB9F20FFF78C
:102D0000D1FFA520FFF7CEFF0400A520FFF7CAFFE3
:102D10000500A520FFF7C6FF060010212348FFF796
:102D20009BFBF6B2EDB2280250EA0640E4B2204323
:102D300070BD80B52248002105E0224A036822F8D0
:102D40001130001D491C1229F7DB1E4890F82300A2
:102D5000202803D0FFF7F2F9FFF738FF01BD70B567
:102D6000174DFEF7EFFA040000F000F9342000F0F0
:102D700080F9134800F00EF911480500002601E023
:102D80002D1D761C122E07DA0E4830F8161028007A
:102D900000F02FF90428F3D000F0F3F82000FEF73C
:102DA000D5FA70BD0CED00E00400FA050008014002
:102DB00000300140EF4015000B1C0020BC1B002020
:102DC00000A000087C1B002062F30F2262F31F4268
:102DD000401810F0030308D0C91A1FD3DB0748BFFF
:102DE00000F8012D28BF20F8022D130030B414463E
:102DF0001546103928BF20E93C00FAD8490728BFFA
:102E000020E90C0048BF40F8042D890028BF20F8B5
:102E1000022D48BF00F8012D30BC7047C91818BFFB
:102E200000F8012DCB0728BF00F8012D704710B422
:102E300050F8041B81B102681218001D50F8043BC1
:102E4000DC0744BFA9F10104E31852F8044B43F82E
:102E5000044B091FF9D1EBE710BC704762B38B0735
:102E600008D0521E11F8013B00F8013B00F024800D
:102E70008B07F6D1830740F0208000BF103A07D3BC
:102E800030B4B1E83810103AA0E83810F9D230BCAC
:102E9000530724BFB1E80810A0E8081044BF51F858
:102EA000043B40F8043BD20724BF31F8022B20F842
:102EB000022B44BF0B7803707047083A07D3B1E880
:102EC0000810083A40F8043B40F804CBF7D2530707
:102ED000E4E750F8041B61B150F8042BD30744BF5A
:102EE000A9F101039A18002342F8043B091FFAD103
:102EF000EFE7704710B4002203881A0012F4415221
:102F00000B884C8823438C882343CC8823430C892B
:102F100023434C8923438C892343CC8923431A437D
:102F20000280828B4FF2FF731A408283098A0182EA
:102F300010BC7047C9B2002904D0018851F040018B
:102F4000018004E001884FF6BF7211400180704794
:102F5000818170478089704700220089084201D032
:102F6000012200E000221000C0B27047DFF83401F7
:102F7000DFF834110160DFF82C01DFF83011016057
:102F80007047DFF82C01006850F08000DFF8201156
:102F90000860704738B5040004255FF4302000F065
:102FA0008DF80500EDB2042D20D1DFF80401006892
:102FB00050F00200DFF8F8100860DFF8F800046055
:102FC000DFF8EC00006850F04000DFF8E410086023
:102FD0005FF4302000F072F80500DFF8D4000068DC
:102FE00041F6FD710840DFF8C81008602800C0B243
:102FF00032BD70B582B005000C00042600200090A0
:103000004FF4005000F05AF80600F6B2042E2DD10D
:10301000DFF89C00006850F00100DFF894100860B1
:103020002C804FF4005000F049F80600F6B2042E50
:1030300013D1A81C0090200C009908804FF4005078
:1030400000F03CF80600DFF86800006841F6FE7109
:103050000840DFF85C10086008E0DFF85400006802
:1030600041F6FE710840DFF8481008603000C0B239
:1030700076BD11490860704704200F490968C907E7
:1030800001D501200CE00C480068400701D5022062
:1030900006E009480068C00601D5032000E00420CE
:1030A000C0B270470420024023016745AB89EFCDD1
:1030B00010200240142002400C20024038B50400C9
:1030C0000425FFF7D9FF050003E0FFF7D5FF050052
:1030D000641EEDB2012D01D1002CF6D1002C00D1DF
:1030E00005252800C0B232BD80B54E48006850F0BA
:1030F00001004C4908604C4800684C4908404A4966
:103100000860484800684A49084046490860454800
:10311000006830F48020434908604348006830F478
:10312000FE004149086043485FF41F01016000F060
:1031300005F841485FF00061016001BD80B500F015
:1031400001F801BD82B000200190002000903548B8
:10315000006850F48030334908603248006810F449
:10316000003000900198401C01900098002803D185
:103170000198B0F5A06FF0D12A480068800302D50D
:103180000120009001E0002000900098012845D126
:103190002A48006850F01000284908602748006855
:1031A00080088000254908602448006850F001002C
:1031B000224908601C481C49096801601A481A49DC
:1031C00009680160184818490968016016480068D4
:1031D00030F47C10144908601348006850F4F8106B
:1031E000114908600F48006850F080700D49086070
:1031F0000C4800688001FBD50B48006880088000FF
:10320000094908600848006850F002000649086053
:103210000548006810F00C000828F9D102B070478A
:103220000000000000100240041002400000FFF8FF
:10323000FFFFF6FE0810024008ED00E0002002400B
:1032400080B54D480068FEF75BF80A20FDF7DCFD0D
:10325000FFF742FAFFF7C7FCFEF7C4F8FFF77AFA68
:10326000FFF767FD02E00120FFF74CFA4FF47A7098
:10327000FDF7CAFD41480078C0F34010C00710D5E3
:10328000FEF736FF3D48007850F0C0003B4908701B
:1032900041F28830FDF7B8FD41F28830FDF7B4FD0A
:1032A00025E036480078C0B28009032802D1FEF735
:1032B000F6FA1CE031480078C0B2800900280BD132
:1032C00001202E49097860F387112C4801700021F4
:1032D0000B20FEF7B9FE0AE02948807F012806D1BD
:1032E00027480021817700211D20FEF7ADFE2448EC
:1032F000407F012804D1224800214177FFF72FFDAC
:103300001E480078C0B280090128ACD01B48007864
:10331000C0B280090028A6D00120FFF706FAA5E771
:1033200000B585B00020FEF783FF0020FEF78AFF7E
:103330000020FEF791FF01211D20FEF7F8FFFCF7AA
:10334000D5FE0320049000200390802002900D48B9
:1033500001900420009004230B4A00210B48FDF744
:10336000EFFCC0B2002802D05FF0FF3002E0FCF7B3
:1033700070FF002005B000BD14000020A81B002035
:103380007C1B0020C0110020BC130020413200082B
:103390000000010002000100030001000200010022
:1033A000040001000200010003000100020001000E
:1033B00005000100020001000300010002000100FD
:1033C00004000100020001000300010002000100EE
:1033D00006000100020001000300010002000100DC
:1033E00004000100020001000300010002000100CE
:1033F00005000100020001000300010002000100BD
:1034000004000100020001000300010002000100AD
:10341000070001000200010003000100020001009A
:10342000040001000200010003000100020001008D
:10343000050001000200010003000100020001007C
:10344000040001000200010003000100020001006D
:10345000060001000200010003000100020001005B
:10346000040001000200010003000100020001004D
:10347000050001000200010003000100020001003C
:10348000040001000200010003000100020001002D
:10349000BFF34F8F0548006810F4E060044908430B
:1034A00002490860BFF34F8FFEE700000CED00E01B
:1034B0000400FA05704780B572B6FFF7E9FFFBE735
:1034C00080B572B6FFF7E4FFFBE780B572B6FFF791
:1034D000DFFFFBE780B572B6FFF7DAFFFBE7704767
:1034E0007047000010B5084979441C31074C7C44F2
:1034F0001A34A14206D0081D0A68511888470146AF
:10350000A142F8D110BD00BF080000002800000053
:10351000C3F9FFFFFC1B00001800002000000000A2
:103520000FF9FFFF18000000240300000000002036
:103530000000000041542B43495053455256455218
:103540003D312C313233340D0A00000041542B43FD
:103550004C504F52543D5544502C383838380D0A91
:103560000000000041542B434950435347503D3124
:103570002C434D4E45540D0A0000000041542B438E
:103580004744434F4E543D312C49502C434D4E45FA
:10359000540D0A003131352E32382E3130332E3170
:1035A00033312C383038390D0A00000000F009F8AA
:1035B000002801D0FFF796FF0020FFF7B1FE00F0D2
:1035C00002F80120704700F001B8000007463846B5
:1035D00000F002F8FBE7000080B5C046C046024A92
:1035E00011001820ABBEFBE7260002004552524FE7
:1035F000523A4E6F2050726F66696C652100000070
:1036000041542B43495053544152543D5544502C3E
:103610000000000041542B43495053544152543D43
:103620005443502C0000000041542B434741545454
:103630003D310D0A0000000041542B4347415454D2
:103640003D300D0A0000000041542B4349504D55B8
:10365000583D300D0A00000041542B4349504D4F56
:1036600044453D300D0A000041542B435354543D12
:10367000434D4E45540D0A0041542B435354543D81
:10368000434D5741500D0A0041542B434950534874
:1036900055540D0A0000000041542B434950534536
:1036A0004E440D0A0000000041542B43495053542E
:1036B000415455530D0A000041542B434950535275
:1036C00049503D310D0A000041542B4347434C41C2
:1036D00053533D420D0A000041542B4950523D398D
:1036E0003630300D0A00000001488047014800478D
:1036F000E93000085937000868656172746D6572B9
:103700000000000041542B4350494E3F0D0A000079
:1037100041542B4353510D0A0000000041542B43E8
:10372000474154543F0D0A0041542B4349494352E9
:103730000D0A000041542B43494653520D0A000024
:1037400041542B434349440D0A00000075617274D3
:1037500033736D6572000000C046C046C046C04667
:10376000FFF724FF677072736D6572004154453135
:103770000D0A00000D0A4F4B0D0A0000FFF79ABE1C
:10378000FFF799BEFFF79CBEFFF79FBEFFF7A2BEF3
:10379000FFF7A5BEFFF7A4BEFDF7F1BDFDF7A1BD84
:1037A000FFF7FEBFFFF7FEBFFFF7FEBFFFF7FEBF4D
:1037B000FFF7FEBFFFF7FEBFFFF7FEBFFFF7FEBF3D
:1037C000FFF7FEBFFFF7FEBFFFF7FEBFFFF7FEBF2D
:1037D000FFF7FEBFFFF7FEBFFFF7FEBFFFF7FEBF1D
:1037E000FFF7FEBFFFF7FEBFFFF7FEBFFFF7FEBF0D
:1037F000FFF7FEBFFFF7FEBFFFF7FEBFFFF7FEBFFD
:10380000FFF7FEBFFFF7FEBFFFF7FEBFFFF7FEBFEC
:10381000FFF7FEBFFFF7FEBFFFF7FEBFFFF7FEBFDC
:10382000FFF7FEBFFFF7FEBFFFF7FEBFFFF7FEBFCC
:10383000FFF7FEBFFFF7FEBFFDF7ECBEFFF72FB8A7
:10384000FFF7FEBFFFF7FEBFFFF7FEBF000000005F
:103850000102030401020304060708090204060822
:0438600000512502EC
:04000005080037595F
:00000001FF
